:10000000F52BCF1B0B2883134F1883170008840A86
:100010000319CF0A080000308A000408840A820706
:100020000034203420342034203420342034203450
:100030002034203420342034203420342034203420
:1000400020340034203420342034203452344534D9
:1000500049344E344934433449344F342034203405
:1000600020342034003420342D342D342D344334C6
:100070004F344E345434413444344F3452342D349C
:100080002D342D34203400344D344F3444344F3427
:100090003A34203400344D3441344E3455344134F4
:0E00A0004C3400344134553454344F34003461
:1000F800E734033464008001840A040603190034D9
:1001080004067F28013023210730831290007D30B8
:100118008F008F0B8D28900B8D2808008312851572
:100128000D308E00AF308D00C1308C008C0B9A28BA
:100138008D0B9A288E0B9A280000831285110230A5
:100148008E0045308D00A9308C008C0BA9288D0BB2
:10015800A9288E0BA928B028080083129300130839
:10016800013A0319BC284030920012089400BD28B7
:1001780094010F08FF3E9200120894071408803873
:10018800232183121108CF001008840001200038B1
:100198000319080083121108CF00100884000120F9
:1001A8006E210130831290070318910AC528831223
:1001B8002708803AA0003708803A2002031DE62865
:1001C80036082602031CFF288312A601A7018F0107
:1001D8008F0A12309000803091000230B120213017
:1001E8008312A1007630A000A00BF828A10BF828F4
:1001F8000000862008008312270896019607260823
:10020800950195072C30A00020089700D62283126C
:100218008F018F0A2C309000003091000230B120FD
:1002280002308312A2004530A100A930A000A00B23
:100238001B29A10B1B29A20B1B29222908008312A9
:100248008E000F308C000C0886050E08F0398C00E3
:100258000C0886048611061511308D003A308C0082
:100268008C0B34298D0B34290000831206111130B0
:100278008D003A308C008C0B3F298D0B3F290000F4
:100288000F3083128C000C0886050E088C00033092
:1002980003108C0DFF3E031D4C2903100C0DF03983
:1002A8008D000D0886048611061511308D003A3030
:1002B8008C008C0B5D298D0B5D29000083120611C3
:1002C80011308D003A308C008C0B68298D0B682911
:1002D8000000080083128E000F308C000C08860581
:1002E8000E08F0398C000C088604861506151130A6
:1002F8008D003A308C008C0B7F298D0B7F290000F4
:100308008312061111308D003A308C008C0B8A292B
:100318008D0B8A2900000F3083128C000C0886058B
:100328000E088C00033003108C0DFF3E031D972927
:1003380003100C0DF0398D000D088604861506157E
:1003480011308D003A308C008C0BA8298D0BA82910
:1003580000008312061111308D003A308C008C0B8E
:10036800B3298D0BB32900000800831292018F1F57
:10037800C4298E098F098E0A03198F0A9201920ADD
:100388008D1FCB298C098D098C0A03198D0A0D083C
:100398000C040319F8299101910A8D1BDF290130FA
:1003A80003108C0D8D0DFF3E031DD42901309000E4
:1003B80010089107D1290D080F02031DE5290C0823
:1003C8000E02031CED290C088E020D08031C8F0376
:1003D8008F02013003108D0C8C0CFF3E031DEE299B
:1003E80001309102031DDF2912080319002A8E0922
:1003F8008F098E0A03198F0A0F088D018D070E08C1
:100408008C018C070800831292018D1F122A8C0917
:100418008D098C0A03198D0A9201920A8F1F1D2AD1
:100428008E098F098E0A03198F0A0130900010086F
:100438009206930194010D080C040319542A9101A2
:10044800910A8D1B332A013003108C0D8D0DFF3E50
:10045800031D282A0130900010089107252A013031
:100468000310930D940DFF3E031D342A0D080F024F
:10047800031D402A0C080E02031C492A0C088E0290
:100488000D08031C8F038F021314013003108D0C09
:100498008C0CFF3E031D4A2A01309102031D332AAA
:1004A800120803195C2A93099409930A0319940AF8
:1004B80014088D018D0713088C018C07080083121E
:1004C800910130308F000F089200033083168600A8
:1004D800313083129000B2308F008F0B712A900B4D
:1004E800712A000083121208860086110615113041
:1004F80090003A308F008F0B7F2A900B7F2A0000E4
:1005080083120611113090003A308F008F0B8A2A1F
:10051800900B8A2A0000831212088600861106159D
:10052800113090003A308F008F0B982A900B982A40
:10053800000083120611A6308F008F0BA12A00003D
:1005480083121208860086110615113090003A3081
:100558008F008F0BAD2A900BAD2A00008312061175
:10056800A6308F008F0BB62A000020308312860039
:1005780086110615113090003A308F008F0BC22A71
:10058800900BC22A00008312061121308F008F0BB6
:10059800CB2A283023210C30232106302321013097
:1005A8002321080083129C019D010A308C00003031
:1005B8008D0016088F018F0715088E018E07B92147
:1005C80083120C08303E98001C0817079900190878
:1005D800840018088313800001309C0703189D0AC3
:1005E80000309D070A308C0000308D0016088F01FE
:1005F8008F0715088E018E07072283120D089601B2
:1006080096070C089501950716081504031DD92AA5
:100618001C081707980018088400831380019E019E
:100628009F019E019F0102308C0000308D001D0843
:100638008F018F071C088E018E07072283121F085F
:10064800803A98000D08803A1802031D2D2B0C08DB
:100658001E020318080083121E08170798001808BE
:10066800840083130008990019089B001E08013EA6
:10067800FF3A013E1C071707980018088400000875
:1006880099001E0817079A001A08840019088000A4
:100698001B0898001E08013EFF3A013E1C07170779
:1006A8009900190884001808800001309E07031873
:1006B8009F0A00309F07172B831606108610061115
:1006C80086110612861206138613811281110730CD
:1006D80081040514851485110515051683128501F5
:1006E8008601632283128F018F0A233090008030A5
:1006F80091000130B1200D308312A500AF30A40065
:10070800C130A300A30B862BA40B862BA50B862B2D
:10071800000086208312851CE92B8F018F0A013087
:100728009000803091000230B12007308312A3007E
:1007380023088F0007309000803091000130B120ED
:1007480083128F018F0A343090008030910001307D
:10075800B1208312051CC62B0730A30023088F0085
:1007680042309000803091000130B1208312051E84
:10077800E42B922001308312A6070318A70A003041
:10078800A707E42B0730A30023088F003B30900015
:10079800803091000130B1208312051DE42B922096
:1007A80001308312A6070318A70A0030A7072130D3
:1007B800A4007630A300A30BDF2BA40BDF2B0000D3
:1007C800DB208312851C8E2B912BA330A40055307F
:1007D800A300A30BED2BA40BED2B831285188E2BF6
:1007E800E92B83132630840036307E207C20B60027
:0807F8007D20B7008301602B96
:00000001FF
